:02000000CB2A09
:10000800FF00030E83018316C8000A08C9008A018D
:1000180070088312A4007108A3007208A2007C086B
:10002800A1007D08A0000408A5001A088316C500D1
:1000380001308312A8000B1DCA285C2270088312A5
:10004800A9007108AA00EC0A0319ED0AEE0A0319BF
:10005800EF0A00306F06031D33281E306E06031D9D
:1000680086282E08003A031D50282B08003A031D45
:10007800502801308316D500F72001308316D000B0
:100088000130D100A030D2006B220230D0000830FD
:10009800D1006930D2006B2283122E08013A031D69
:1000A8006B2801308316D500F72001308316D00065
:1000B8000130D1005930D2006B220230D000033019
:1000C800D100B130D2006B228312AE0184282B08F4
:1000D800013A031D842801308316D500F72001302A
:1000E8008316D0000530D1003B30D2006B2202309D
:1000F800D0000330D1003030D2006B228312AB0124
:10010800EE01EF0100306D06031D8C2899306C0656
:10011800031DCA2800302D06031D942801302C0623
:10012800031DC8288316C401440883122F078400BE
:1001380000082E3A0319AC288316440883122F07A7
:10014800840000088316D000AC228316C40A9828BD
:1001580083160D30D000AC220A308316D000AC22B2
:10016800AC01AD0180302706F0008030033A700200
:10017800031DC028E83026020318C628A60A03195A
:10018800A70AB628A601A701EC01ED01FB308B05F3
:100198002408F0002308F1002208F2002108FC00DE
:1001A8002008FD0025088400831649088A00480EA7
:0801B8008300FF0E7F0E090019
:0E01C000213083120313FD00FD0BE42808001C
:0601CE0000000000080023
:1001D4000F3083120313FC004730FD00FD0BF028A1
:0A01E400FC0BF028000000000800EA
:1001EE0083160313D51BFE28831286110029831252
:1001FE0086158316551B06298312061108298312AC
:10020E0006158316D51A0E2983128610102983120D
:10021E0086148316551A162983120610182983126E
:10022E000614831641181E298312061620298312DE
:10023E0006128616E72086128316D51929298312EF
:10024E0086112B298312861583165519312983128F
:10025E0006113329831206158316D51839298312F0
:10026E0086103B2983128614831655184129831252
:10027E000610432983120614831641184929831246
:10028E0006164B29831206128616E720861283164F
:0C029E00411C5329EA205429E0200800EC
:1002AA0083120313F101F20183164F087202031D30
:1002BA0060294E08710203187429F301F401003011
:1002CA007402031D6A299B30730203187029F30A0A
:1002DA000319F40A6429F10A0319F20A59290800D0
:0E02EA008316031340088A003F0882000800B4
:1002F8008316031341105408D500F72083164114C0
:020308000800EB
:10030A0083120313FB01FA01F9018030F800F10CA2
:10031A00F00C031C99297408F90775080318750F5E
:10032A00FA070318FB0A0310F01FA1297408FA0739
:10033A0075080318750FFB07FB0CFA0CF90CF80C7F
:10034A00031C8C297B08F3007A08F2007908F10073
:06035A007808F000080025
:1003600083120313F801F9011030FC00710DF80D30
:10037000F90D7408F8027508031C750FF9020318CB
:10038000C8297408F80775080318750FF9070310D2
:0A039000F00DF10DFC0BB62908007A
:10039A00831603138612061206108610061186119A
:1003AA008312861206128611061186100610EA209A
:1003BA00EA20EA20861406148616E7208612EA2026
:1003CA008616E7208612EA208616E7208612EA2099
:1003DA0006108616E7208612EA208616E72086127D
:1003EA00861086158616E7208612EA2086110614DC
:1003FA008616E720861206108616E7208612EA205D
:10040A008616E720861206148616E7208612EA2048
:10041A0006108616E7208612861506158614061417
:0E042A008616E7208612EA2083164114080089
:100438000C308316031399002030980090308312F3
:1004480098008030831687008C16C0308B00080017
:10045800831603134A08C6004B08C7004C08F0006F
:100468004D08F1004A08F4004B08F5008521643076
:10047800F4000030F500B02170088316C20071083E
:10048800C30005308312880070088316CE007108F7
:10049800CF005521831203138801831642084602B0
:1004A800CE004308031C013E4702CF005521080037
:1004B800831203131F151F1D622A5F2A1E08F100ED
:0E04C800F00183161E08F0040030F104080055
:1004D6007D2A803083160313D000902AC030D000C6
:1004E600902A9430D000902AD430D000902A8030C0
:1004F600D000902A831603135008013A03196C2A78
:100506005008023A0319712A5008033A0319742A4B
:100516005008043A0319772A7A2A5103F000500842
:10052600F0077008D0007008D500F7208316411038
:10053600D30153085207840000080319AA2A530856
:10054600520784000008D4007C21D30A9C2A411457
:0205560008009B
:10055800831603139818B12AAC2A500883129900FD
:02056800080089
:10056A004130831203139F00CE3083169F0001305F
:04057A0085000800F0
:10057E0075218A110A128000840ABF0A0319C00A63
:08058E00F003031DBF2A080061
:100596009823831603138601B522831286018316D8
:1005A6008801831288011C228B16873081008312F2
:1005B6008101CD21013083122A02031DE42A9030E5
:1005C60029020318F92A0A308316CA000030CB0024
:1005D6006430CC000030CD002C220130831203138E
:1005E600AE000130AC000030AD00282B01302A02ED
:1005F600031DFF2AC3302902031C1C2B2A08023CB8
:10060600031D072B2908BD3C031C1C2B0530831634
:10061600CA000030CB003C30CC000030CD002C228C
:10062600013083120313AB000130AC000030AD0083
:10063600282B02302A02031D222BBE302902031C5E
:0E064600282BAC01AD01AE01AB01DD2A292B42
:1007300026308400433083120313F0002F308316D9
:10074000BF000330C000BF22A030840011308312EC
:100750000313F00072308316BF000330C000BF22C5
:1007600069308400073083120313F0009130831640
:10077000BF000330C000BF22B13084000E308312AE
:100780000313F00083308316BF000330C000BF2284
:0207900008005F
:04065E000034003430
:02066200003462
:04066400003400342A
:0206680000345C
:04066A000034003424
:02066E00003456
:0206700045340F
:1006720042344534203443344134523445344634D0
:0606820055344C34003435
:100688005734413452344E3449344E3447343A3472
:0406980020340034D6
:10069C00413420346634693472346534203469341E
:1006AC007334203464346534743465346334743492
:0806BC00653464342E3400346F
:1006C4005434483445345234453420344934533452
:1006D40020344134203446344934523445340034CF
:1006E40053344D3441345234543420344634493430
:1006F40052344534203441344C34413452344D3432
:020704000034BF
:1007060050344C34453441345334453420344C341D
:0C0716004534413456344534203400345E
:060722003A3429340034D2
:040728000034003465
:04072C000034003461
:02400E004A2F37
:00000001FF
